:020000040800F2
:10000000B00600202902000831020008330200086F
:10001000350200083702000839020008000000001D
:100020000000000000000000000000003B0200088B
:100030003D020008000000003F02000841020008E5
:10004000430200084302000843020008430200087C
:100050004302000843020008990300084302000815
:10006000430200084302000843020008430200085C
:10007000430200084302000843020008430200084C
:10008000430200084302000843020008430200083C
:10009000430200084302000843020008430200082C
:1000A000430200084302000843020008430200081C
:1000B0004D0A0008A10A0008430200084302000894
:1000C00043020008430200084302000843020008FC
:1000D00043020008430200084302000843020008EC
:1000E00043020008430200084302000843020008DC
:1000F00043020008430200084302000843020008CC
:1001000043020008430200084302000843020008BB
:1001100043020008430200084302000843020008AB
:10012000430200084302000843020008430200089B
:10013000430200084302000843020008430200088B
:10014000430200084302000843020008430200087B
:10015000430200084302000843020008430200086B
:10016000430200084302000843020008430200085B
:10017000430200084302000843020008430200084B
:10018000430200084302000800F002F800F03CF8C7
:100190000AA090E8000C82448344AAF10107DA45E2
:1001A00001D100F031F8AFF2090EBAE80F0013F0F8
:1001B000010F18BFFB1A43F0010318475C0C000045
:1001C0007C0C0000103A24BF78C878C1FAD85207D6
:1001D00024BF30C830C144BF04680C6070470000C1
:1001E0000023002400250026103A28BF78C1FBD840
:1001F000520728BF30C148BF0B6070471FB500F0E1
:1002000005FE1FBD10B510BD00F031F81146FFF717
:10021000F5FF00F0DFFD00F04FF803B4FFF7F2FF49
:1002200003BC00F057F80000094880470948004720
:10023000FEE7FEE7FEE7FEE7FEE7FEE7FEE7FEE796
:10024000FEE7FEE704480549054A064B70470000F3
:10025000E509000889010008B0000020B006002070
:10026000B0020020B002002070477047704775460A
:1002700000F02CF8AE4605006946534620F0070012
:10028000854618B020B5FFF7DDFFBDE820404FF0F0
:1002900000064FF000074FF000084FF0000B21F070
:1002A0000701AC46ACE8C009ACE8C009ACE8C0093D
:1002B000ACE8C0098D46704710B50446AFF3008026
:1002C0002046BDE81040FFF7A8BF00000048704777
:1002D0004C00002001491820ABBEFEE726000200BA
:1002E000704700000C48007898B90C48007880B13D
:1002F0000B48007868B90B4890ED000AB8EE400A48
:10030000F1EE080AB4EEE00AF1EE10FA01DB01208A
:1003100070470020FCE70000250000202600002098
:1003200020000020140000201448008848B94FF431
:1003300000501349088013480088400012490860A3
:1003400018E00E480088012808D180030C49088075
:100350000E48008840000C4908600BE00748008800
:10036000022807D180030649088009480088400018
:1003700005490860012007490870704734000020D3
:100380002E00002036000020300000203800002021
:100390003A0000202700002010B5012000F046F8A8
:1003A000002830D00121184800F00EF948B1174854
:1003B000007810B100201649086000201349087029
:1003C0001EE0FFF78FFFA8B11248007830B912483D
:1003D000007818B901200F4908700BE00D4800782B
:1003E00040B10D48007828B900200A490870012062
:1003F0000949087001200549087000200749086074
:10040000012000F00DF810BD000002402000002087
:1004100014000020230000202400002018000020E9
:100420000149086070470000143C0140014600206B
:10043000034A12680A400AB1012000E00020704718
:10044000143C0140002123498279002A3AD00A460F
:10045000126803689A430B461A600A1D1268036803
:100460009A430B1D1A60027911440A6803681A4303
:100470000A60184A0832126803689A43154B083319
:100480001A601A1D126803689A43124B0C331A60E3
:100490004279102A0ED11A1F126803681A430D4BB5
:1004A00008331A601A1D126803681A43094B0C338B
:1004B0001A600DE00749427911440A6803681A433B
:1004C0000A6005E0027911440A6803689A430A60E9
:1004D00070470000003C014010B506200549087037
:1004E0000020487088700120C870084600F01CF990
:1004F00010BD00001000002008B51C208DF8000081
:1005000000208DF8010001208DF802008DF8030015
:10051000684600F009F908BD08B51D208DF80000F7
:1005200000208DF8010001208DF802008DF80300F5
:10053000684600F0F9F808BDF0B50A46002100232E
:10054000002400BF3DE0012505FA01F3156805EA26
:1005500003049C4234D105684F000326BE40B543D6
:10056000056015794E00B54006683543056015797C
:10057000012D02D01579022D16D185684F00032672
:10058000BE40B543856055794E00B5408668354319
:100590008560456801268E40B5434560456896797B
:1005A0008E40B6B235434560C5684F000326BE4055
:1005B000B543C560D5794E00B540C6683543C560C2
:1005C000491C1029BFD3F0BD0246002013690B401F
:1005D0000BB1012000E00020704741837047018388
:1005E000704742694A4042617047000010B50121DE
:1005F000084600F0D5F800200649087188710120EE
:1006000008600220C871032048710348FFF794FF77
:1006100010BD0000000000200000024010B50121C4
:10062000880300F0DDF80021084600F0E9F8012019
:10063000054908608871002008711020487108463B
:10064000FFF700FF10BD00000800002010B50121D9
:10065000082000F0A5F84FF470400649086001201A
:10066000087100208871C871032048710248FFF7A3
:1006700063FF10BD00000020000C024010B50121F6
:10068000084600F09DF8E8200B49088000204880CB
:1006900040F6B73048600020088188724FF08040F3
:1006A00000F04CFA0121880700F021FA01221146DE
:1006B000900700F039FA10BD4000002010B501216C
:1006C000022000F07DF840F633000B49088000203E
:1006D000488042F20F704860002008818872074805
:1006E00000F02CFA0121054800F001FA0122114620
:1006F000024800F019FA10BD40000020000400403C
:1007000010B5044621460248FFF767FF10BD000000
:10071000000C024010B5044621460248FFF75FFF77
:1007200010BD0000000C024070B5002100230F2214
:10073000C4781CB3174C246804F4E064C4F5E06486
:10074000C4F30721C1F10404E3B20A4144789C4098
:10075000E1B28478144021430C07210E0E4C057839
:100760006155047804F01F050124AC4005786D1133
:10077000AD0005F1E025C5F8004109E0047804F07A
:100780001F050124AC40054D0678761145F826403A
:1007900070BD00000CED00E000E400E080E100E04E
:1007A00029B1064A12680243044B1A6004E0034A66
:1007B00012688243014B1A607047000030380240D3
:1007C00029B1064A12680243044B1A6004E0034A46
:1007D00012688243014B1A607047000040380240A3
:1007E00029B1064A12680243044B1A6004E0034A26
:1007F00012688243014B1A6070470000443802407F
:1008000030B500228B071C0F0F2303FA04F20B4BA9
:100810008C1053F824309343084C8D1044F8253045
:1008200023468C1053F824308C07240F00FA04F46C
:100830002343024C8D1044F8253030BD0838014068
:100840000CB50020019000903448006840F48030DE
:100850003249086000BF3148006800F40030009061
:100860000198401C0190009818B90198B0F5A04F6C
:10087000F1D12A48006800F4003010B10120009046
:1008800001E0002000900098012846D12348403024
:10089000006840F0805021494031086020480068DD
:1008A00040F440401E4908601C48083000681B495D
:1008B000083108600846006840F4004008600846B7
:1008C000006840F4A05008601648091F0860081F1F
:1008D000006840F08070091F086000BF0F48006882
:1008E00000F000700028F9D040F205700E49086051
:1008F0000A480830006820F0030008490831086001
:100900000846006840F00200086000BF0348083055
:10091000006800F00C000828F8D10CBD0038024037
:100920000070004008544007003C024010B50448E5
:10093000007810B100F006F801E000F027F810BDD3
:100940002800002010B50D48007808B9FFF7ECFC2E
:100950000B48006800280FDC4FF48050FFF7DAFEE8
:100960000848007820B108480088FFF7D3FE03E06C
:1009700005480088FFF7C4FE10BD000027000020D6
:1009800030000020200000202E00002010B54FF481
:100990008050FFF7B5FE1248008840B94FF4004080
:1009A000FFF7AEFE4FF40050FFF7B4FE16E00C4820
:1009B0000088012807D14003FFF7A2FE4FF48040D2
:1009C000FFF7A8FE0AE006480088022806D1400387
:1009D000FFF796FE4FF40040FFF79CFE10BD0000AD
:1009E0003400002010B51548006840F47000134929
:1009F00008601348006840F00100114908600020B9
:100A00000F49083108600E4800680E4908400C493B
:100A100008600D48091D0860081F006820F4802048
:100A2000091F0860002006490C310860FFF708FF25
:100A30004FF0006001498039086010BD88ED00E08A
:100A400000380240FFFFF6FE1030002410B50121EF
:100A5000880700F058F8D0B10121880700F044F869
:100A60000B480068401C0A4908600A480068401C9E
:100A7000084908600848007848B905480068F02827
:100A800005D301200549087000200149086010BD08
:100A90001400002018000020200000202500002065
:100AA00010B501210C4800F02EF898B101210A4838
:100AB00000F01AF80948006860B10948008848B198
:100AC000074801880748FFF78CFD04480068401E6E
:100AD0000249086010BD0000000400403000002002
:100AE0002E000020000C0240CA430282704721B150
:100AF000028842F00102028004E002884FF6FE7391
:100B00001A400280704730B50246002000230024BE
:100B1000158A05EA0103958905EA010413B10CB1B0
:100B2000012000E0002030BD1AB183890B4383818E
:100B300002E083898B438381704700000022028892
:100B4000184B98420ED0184B98420BD0B0F1804F02
:100B500008D0164B984205D0154B984202D0154B41
:100B6000984204D14FF68F731A404B881A43124BA8
:100B7000984207D0114B984204D04FF6FF431A40D9
:100B80000B891A4302804B68C3620B880385054BAF
:100B9000984202D0044B984201D18B7A03860123FC
:100BA00083827047000001400004014000040040BF
:100BB00000080040000C00400010004000140040FD
:100BC0000C48008820B90C4800880C49088010E0C7
:100BD00008480088012804D107480088084908808F
:100BE00007E004480088022803D10348008805492B
:100BF00008807047340000203C00002036000020B0
:100C0000380000203A00002000B50D48007840B1BF
:100C10000C48007810B100F065F810E000F018F80A
:100C20000DE00948007850B10548007838B9002037
:100C3000054908700120024908700449087000BD88
:100C40002600002028000020250000202000002091
:100C50001A4890ED000AB8EE400ADFED190AB4EE2A
:100C6000E00AF1EE10FA01D8012000E00020154959
:100C700008701548007880B10846007868B91348B4
:100C80000088401C032190FBF1F201FB12000F4988
:100C9000088000200C4908700EE00D48007858B11B
:100CA00001200C49087000200B4908800B4908609E
:100CB0000B490870064908707047000018000020B2
:100CC000000070422100002023000020340000209A
:100CD00024000020280000203C0000201C000020F0
:100CE0002700002000B530480078002848D02F4861
:100CF0000068002844DC2E4890ED000AB8EE400A57
:100D0000DFED2C0AB4EEE00AF1EE10FA01D8012072
:100D100000E00020284908702848007858B10846AB
:100D2000007840B926480088401C254908800020EA
:100D30002249087036E023480078A8B1204800888E
:100D4000002806DDFFF73CFF00201D4908801E49F2
:100D5000087000201B4908701C490870174908706A
:100D600001201B4908701DE018480078D0B11448D4
:100D70000088801C1249088000201449087011E086
:100D80000E48007810B100200C4908700D4800781A
:100D900010B100200B4908700C48007810B10020F9
:100DA0000A49087000BD0000270000203000002024
:100DB00018000020000070422100002023000020C5
:100DC0003C000020250000202800002024000020F6
:100DD00020000020FFF73AFCFFF708FCFFF71EFC9D
:100DE000FFF74CFCFFF76AFCFFF786FBFFF794FB6D
:100DF000FFF772FB06E0FFF707FF0348007808B132
:100E0000FFF794FDF7E70000260000204FF0407048
:100E1000E1EE100A70470000380E000800000020C4
:100E200040000000C4010008780E000840000020C7
:100E300070060000E0010008000000000000000053
:100E400000000000000000000000000000000000A2
:100E50000000000000000000010000000000000091
:100E60000000000000000000000000000000020080
:080E7000040006000000000070
:0400000508000229C4
:00000001FF
