:020000040800F2
:10000000B8130020E5030008ED030008EF03000823
:10001000F1030008F3030008F503000800000000E6
:10002000000000000000000000000000B502000811
:10003000F9030008000000006D030008D103000868
:10004000FF030008FF030008FF030008FF03000888
:10005000FF030008FF03000879050008FF030008FC
:10006000FF030008FF030008FF030008FF03000868
:10007000FF030008FF030008FF030008FF03000858
:10008000FF030008FF030008FF030008FF03000848
:10009000FF030008FF030008FF030008FF03000838
:1000A000FF030008FF030008FF030008FF03000828
:1000B000C9120008A913000809140008FF0300086A
:1000C000FF030008FF030008FF030008FF03000808
:1000D000FF030008FF030008FF030008FF030008F8
:1000E000FF030008FF030008FF030008FF030008E8
:1000F000FF030008FF030008FF030008FF030008D8
:10010000FF030008FF030008FF030008FF030008C7
:10011000FF030008FF030008FF030008FF030008B7
:10012000FF030008FF030008FF030008FF030008A7
:10013000FF030008FF030008FF030008FF03000897
:10014000FF030008FF030008FF030008FF03000887
:10015000FF030008FF030008FF030008FF03000877
:10016000FF030008FF030008FF030008FF03000867
:10017000FF030008FF030008FF030008FF03000857
:10018000FF030008FF03000800F002F800F03CF84D
:100190000AA090E8000C82448344AAF10107DA45E2
:1001A00001D100F031F8AFF2090EBAE80F0013F0F8
:1001B000010F18BFFB1A43F0010318476438000011
:1001C00084380000103A24BF78C878C1FAD85207A2
:1001D00024BF30C830C144BF04680C6070470000C1
:1001E0000023002400250026103A28BF78C1FBD840
:1001F000520728BF30C148BF0B6070471FB503F0DE
:10020000D0FB1FBD10B510BD00F022F91146FFF75D
:10021000F5FF0FB400F00CF80FBC01F04FFD00F03B
:1002200005F903B4FFF7EEFF03BC00F00BF9000083
:1002300004B001F021FE0448002101F071FE01F03C
:100240002DFE00F0F3F80000103A000880F3098852
:100250007047EFF309807047684680F309880448C7
:100260000078C00714BF0220032080F31488704771
:10027000D0390008DFF818C0EFF305831B0618BF5C
:100280006047EFF31483DB0708BF604700DF704768
:10029000D1200008DFF818C0EFF305831B0618BF54
:1002A0006047EFF31483DB0708BF604700DF704748
:1002B000AD220008EFF30980816911F8021CE1BB4F
:1002C00090E80F1010B5E047BDE81040EFF3098C3F
:1002D0008CE80700214B93E80600914208BF704765
:1002E00041B91EF0100F16D11D49086820F0010019
:1002F000086010E01EF0100F06BF2CED108A0120E0
:10030000002081F825002CE9F00FC1F828C00CB4BA
:1003100002F076FB0CBC1A60D2F828C0BCE8F00FE3
:1003200092F8250000280EBF6FF0020E6FF0120E3B
:10033000BCEC108A8CF30988704710B5094A126822
:10034000914209D8084C54F8214090E80F10A0477A
:10035000EFF3098C8CE80F0010BD0000980000201E
:1003600034EF00E09C0400089C04000810B502F083
:100370000BFABDE81040154B93E80600914208BF08
:100380007047EFF3098C1EF0100F06BF2CED108A9A
:100390000120002081F825002CE9F00FC1F828C0C9
:1003A0000CB402F02DFB0CBC1A60D2F828C0BCE8DB
:1003B000F00F92F8250000280EBF6FF0020E6FF0CC
:1003C000120EBCEC108A8CF309887047980000204C
:1003D00010B502F0DDFBCCE710B501F007FE02F02E
:1003E000D7FBC6E70948804709480047FEE7FEE714
:1003F000FEE7FEE7FEE7FEE7FEE7FEE7FEE7FEE7D5
:1004000004480549054A064B704700006112000880
:1004100089010008B80D0020B8130020B80F002093
:10042000B80F002000487047540D002010B5044656
:10043000AFF300802046BDE81040FFF7F2BE7047E2
:100440007047704701491820ABBEFEE72600020046
:100450007546FFF7E7FFAE4605006946534620F0B4
:100460000700854618B020B5FFF7CAFFBDE8204059
:100470004FF000064FF000074FF000084FF0000B60
:1004800021F00701AC46ACE8C009ACE8C009ACE813
:10049000C009ACE8C0098D467047704700000000F5
:1004A0000C48007898B90C48007880B10B48007867
:1004B00068B90B4890ED000AB8EE400AF1EE080A60
:1004C000B4EEE00AF1EE10FA01DB012070470020E3
:1004D000FCE7000041000020420000203C0000201A
:1004E0003000002008B51E208DF8000000208DF897
:1004F000010001208DF8020000208DF803006846FD
:1005000000F046FC08BD00001448006848B94FF4EC
:1005100000501349088013480088400012490860C1
:1005200018E00E480068012808D180030C490880B3
:100530000E48008840000C4908600BE0074800683E
:10054000022807D180030649088009480088400036
:1005500005490860012007490870704754000020D1
:100560004C00002058000020500000205A000020BD
:100570005C0000204300002010B5012000F058F876
:1005800000283CD001211E4800F053F948B11D4815
:10059000007810B100201C4908600020194908703B
:1005A0001EE0FFF77DFFA8B11848007830B9184861
:1005B000007818B90120154908700BE0134800783D
:1005C00040B11348007828B9002010490870012074
:1005D0000F49087001200B49087000200D49086080
:1005E00000200D4908600D48007828B100200B4913
:1005F0000870401E0A490860012000F013F810BD81
:10060000000002403C000020300000203F0000209D
:100610004000002034000020380000204500002069
:10062000540000200149086070470000143C01405C
:1006300001460020034A12680A400AB1012000E086
:1006400000207047143C0140002123498279002A90
:100650003AD00A46126803689A430B461A600A1D8C
:10066000126803689A430B1D1A60027911440A68E4
:1006700003681A430A60184A0832126803689A43EA
:10068000154B08331A601A1D126803689A43124BFF
:100690000C331A604279102A0ED11A1F12680368AF
:1006A0001A430D4B08331A601A1D126803681A4367
:1006B000094B0C331A600DE00749427911440A686E
:1006C00003681A430A6005E0027911440A68036866
:1006D0009A430A6070470000003C014010B50620B4
:1006E000054908700020487088700120C8700846CD
:1006F00000F04EFB10BD00002C00002008B51C20AF
:100700008DF8000000208DF8010001208DF8020016
:100710008DF80300684600F03BFB08BD08B51D20BE
:100720008DF8000000208DF8010001208DF80200F6
:100730008DF80300684600F02BFB08BD08B51E20AD
:100740008DF8000000208DF8010001208DF80200D6
:100750008DF80300684600F01BFB08BDF0B50A46A3
:1007600000210023002400BF3DE0012505FA01F32C
:10077000156805EA03049C4234D105684F0003263E
:10078000BE40B543056015794E00B5400668354357
:1007900005601579012D02D01579022D16D18568D5
:1007A0004F000326BE40B543856055794E00B540E5
:1007B000866835438560456801268E40B5434560AF
:1007C000456896798E40B6B235434560C5684F009E
:1007D0000326BE40B543C560D5794E00B540C66816
:1007E0003543C560491C1029BFD3F0BDF0B50023C7
:1007F00000244D07ED0E02FA05F3CE1000F120059E
:1008000055F826504E07F70E0F26BE40B543CF10C1
:1008100000F1200646F82750CE1000F1200555F8CB
:10082000265045EA0304CE1000F1200545F8264085
:10083000F0BD0246002013690B400BB1012000E01F
:100840000020704741837047018370474FF6FF7166
:1008500001600021017141718171C171704742696C
:100860004A404261704721B1028842F480620280AE
:1008700004E002884FF6FF331A400280704770B5DB
:1008800002460024002500230020958A138B1B04B8
:1008900045EA030626F07F4404EA01068E4201D1B0
:1008A000012000E0002070BD21B1028842F0010269
:1008B000028004E002884FF6FE731A4002807047FF
:1008C00010B504461348844209D10121480500F0BF
:1008D000BBFA00214FF4001000F0B6FA18E00E4801
:1008E000844209D10121880500F0AEFA00214FF4BD
:1008F000800000F0A9FA0BE00848844208D10121E9
:10090000C80500F0A1FA00214FF4000000F09CFAA5
:1009100010BD00000054004000580040005C004042
:1009200021B1028842F48072028004E002884FF60E
:10093000FF631A400280704721B1028842F40072BE
:10094000028004E002884FF6FF531A40028070478D
:100950000CB50246002000230193009300920B0F78
:10096000019321F07F41019B1BB1009B1433009345
:1009700003E0090C009B18330093009B1B680B409D
:100980000BB1012000E000200CBD00002DE9FF4765
:1009900004460D460026B1460427DFF8CC80A68821
:1009A0004FF6C0700640684600F07EFADDF8088019
:1009B0002E48B8FBF0F01FFA80F946EA0906A68037
:1009C00020884FF6FE7108402080002628492868BC
:1009D00088420CD828684000B8FBF0F087B2042F9A
:1009E00000DA04273E4309F10100208427E0E8886B
:1009F0004BF6FF71884206D1286800EB4000B8FB37
:100A0000F0F087B209E0286800EBC00101EB0010AC
:100A1000B8FBF0F087B247F48047C7F30B0008B982
:100A200047F0010747F4004006434FF4967009FB76
:100A300000F04FF47A7190FBF1F0401C2084A68303
:100A4000208840F00100208026884FF6F5300640CF
:100A5000A8886989084306432680A889298908430C
:100A60002081BDE8FF87000000127A0040420F009D
:100A7000A08601000146088AC0B2704712B141F059
:100A8000010101E001F0FE0101827047018270471F
:100A900021B1828B42F48062828304E0828B4FF624
:100AA000FF331A40828370472DE9F04F002502235F
:100AB0000024012700220026944690469146B0F873
:100AC0001CA04FF2400B0AEA0B0AA0F81CA04FF042
:100AD000020AA0F820A0858BD1F808A0BAF1020F75
:100AE00001D100BF6CE0B1F804A0BAF1000F01D150
:100AF000012700E00227DFF810A1DAF800A00AF4CD
:100B0000000ABAF1000F09D0DFF8FCA0DAF800A063
:100B10002AF4000ADFF8F0B0CBF800A0DFF8E8A074
:100B20000AF17C0ADAF800A0CAF38818DFF8D8A026
:100B30000AF17C0ADAF800A0CAF30279DFF8C8A04B
:100B4000AAF1040ADAF800A00AF03F0CDFF8BCA012
:100B5000BAFBFCFA0AFB08FABAFBF9F6B1F806A0F0
:100B6000BAF5007F0ED14FEA162A0AEB8A0A4FEA3D
:100B70004A0AD1F808B0BAFBFBFA0AF1050A1FFAD3
:100B80008AF20FE04FEA471AB6FBFAFA0AEB8A0A32
:100B90004FEA4A0AD1F808B0BAFBFBFA0AF1050A93
:100BA0001FFA8AF24FF00A0AB2FBFAF202F00104CD
:100BB000A2EB040ACAF34F034FF6FF7A0AEA0424B1
:100BC000022B01DBFF2B01DD02230024B1F806A07C
:100BD0004AEA040A4AEA030AA0F820A0B1F804A0ED
:100BE000B1F80CB04AEA0B0AB1F802B04AEA0B0AB3
:100BF000B1F800B04AEA0B0A4AF4006A4AEA05056D
:100C00008583BDE8F08F00000838024000127A00AA
:100C100010B50121084600F0F7F8002006490871D8
:100C20008871012008600220C871032048710348C0
:100C3000FFF794FD10BD00001C00002000000240E2
:100C400010B50121880300F00FF90021084600F0DB
:100C500009FA0120054908608871002008711020F8
:100C600048710846FFF7F0FC10BD0000240000208A
:100C700010B50121082000F0C7F84FF47040064974
:100C800008600120087100208871C8710320487134
:100C90000248FFF763FD10BD1C000020000C02405D
:100CA00010B50121084600F0BFF8E8200B49088084
:100CB0000020488040F6B7304860002008818872E4
:100CC0004FF0804000F04CFC0121880700F021FC2F
:100CD00001221146900700F039FC10BDB800002039
:100CE00010B50121022000F09FF840F633000B49B7
:100CF00008800020488042F20F7048600020088180
:100D00008872074800F02CFC0121054800F001FC26
:100D100001221146024800F019FC10BDB800002065
:100D20000004004010B50121042000F07DF840F2DD
:100D300017100B4908800020488042F20F7048606D
:100D4000002008818872074800F00AFC012105484C
:100D500000F0DFFB01221146024800F0F7FB10BD56
:100D6000B80000200008004010B5044621460248A3
:100D7000FFF768FD10BD0000000C024010B50446EE
:100D800021460248FFF760FD10BD0000000C024044
:100D900070B5002100230F22C4781CB3174C2468BF
:100DA00004F4E064C4F5E064C4F30721C1F1040471
:100DB000E3B20A4144789C40E1B284781440214374
:100DC0000C07210E0E4C05786155047804F01F05C0
:100DD0000124AC4005786D11AD0005F1E025C5F8A2
:100DE000004109E0047804F01F050124AC40054DE2
:100DF0000678761145F8264070BD00000CED00E045
:100E000000E400E080E100E029B1064A12680243F4
:100E1000044B1A6004E0034A12688243014B1A60D3
:100E2000704700003038024029B1064A1268024378
:100E3000044B1A6004E0034A12688243014B1A60B3
:100E4000704700004038024029B1064A1268024348
:100E5000044B1A6004E0034A12688243014B1A6093
:100E6000704700002038024029B1064A1268024348
:100E7000044B1A6004E0034A12688243014B1A6073
:100E8000704700004438024029B1064A1268024304
:100E9000044B1A6004E0034A12688243014B1A6053
:100EA0007047000024380240F0B5002100220024E1
:100EB000022500260223324F3F6807F00C0121B1C2
:100EC000042905D0082937D105E02E4F076036E008
:100ED0002D4F076033E02A4F3F1F3F68C7F380560E
:100EE000274F3F1F3F6807F03F036EB1264FB7FB08
:100EF000F3F7DFF88CC0ACF1040CDCF800C0CCF3E5
:100F0000881C07FB0CF40CE01E4FB7FBF3F7DFF86F
:100F100070C0ACF1040CDCF800C0CCF3881C07FBFB
:100F20000CF4174F3F1F3F68C7F301477F1C7D003C
:100F3000B4FBF5F7076002E0124F076000BF00BF87
:100F40000F4F3F6807F0F0010909104F7A5C0768FE
:100F5000D74047600A4F3F6807F4E051890A0B4FBA
:100F60007A5C4768D7408760054F3F6807F4604167
:100F7000490B064F7A5C4768D740C760F0BD000058
:100F8000083802400024F40000127A00800000209B
:100F900001498866704700000000474210B50446CA
:100FA0002448844208D101218014FFF76DFF0021FD
:100FB000A014FFF769FF3CE01F48844208D10121DB
:100FC0000014FFF741FF00212014FFF73DFF30E040
:100FD0001A48844208D10121C013FFF735FF0021D0
:100FE000E013FFF731FF24E01548844208D10121C6
:100FF0004014FFF749FF00216014FFF745FF18E098
:101000001048844209D101210805FFF73DFF002166
:101010004FF48010FFF738FF0BE00B48844208D1F3
:1010200001214805FFF730FF00214FF40010FFF7C2
:101030002BFF10BD0030014000380040003C004054
:10104000003401400050014000540140024600209D
:1010500013890B400BB1012000E000207047818113
:101060007047000030B500228B071C0F0F2303FAD6
:1010700004F20B4B8C1053F824309343084C8D1022
:1010800044F8253023468C1053F824308C07240F65
:1010900000FA04F42343024C8D1044F8253030BD8F
:1010A000083801400CB500200190009034480068D9
:1010B00040F480303249086000BF3148006800F4D5
:1010C000003000900198401C0190009818B90198D8
:1010D000B0F5A04FF1D12A48006800F4003010B1FB
:1010E0000120009001E0002000900098012846D1E6
:1010F00023484030006840F080502149403108606A
:101100002048006840F440401E4908601C480830F0
:1011100000681B49083108600846006840F4004038
:1011200008600846006840F4A05008601648091F8F
:101130000860081F006840F08070091F086000BF49
:101140000F48006800F000700028F9D040F20570E8
:101150000E4908600A480830006820F0030008497A
:10116000083108600846006840F00200086000BFCF
:1011700003480830006800F00C000828F8D10CBDC6
:10118000003802400070004008544007003C024014
:1011900010B50448007810B100F006F801E000F046
:1011A00027F810BD4400002010B50D48007808B99C
:1011B000FFF7AAF90B48006800280FDC4FF48050B5
:1011C000FFF7DCFD0848007820B108480088FFF7E9
:1011D000D5FD03E005480088FFF7C6FD10BD0000FF
:1011E00043000020500000203C0000204C00002064
:1011F00010B54FF48050FFF7B7FD1848006860B98C
:101200004FF40040FFF7B0FD4FF48040FFF7ACFD16
:101210004FF40050FFF7B2FD1EE0104800680128AF
:101220000BD14003FFF7A0FD4FF40040FFF79CFDFA
:101230004FF48040FFF7A2FD0EE008480068022846
:101240000AD14003FFF790FD4FF40050FFF78CFDEB
:101250004FF40040FFF792FD10BD00005400002045
:1012600010B51548006840F4700013490860134831
:10127000006840F001001149086000200F49083162
:1012800008600E4800680E4908400C4908600D4887
:10129000091D0860081F006820F48020091F0860ED
:1012A000002006490C310860FFF7FCFE4FF000609B
:1012B00001498039086010BD88ED00E00038024027
:1012C000FFFFF6FE1030002410B50121880700F062
:1012D0002CF900284FD00121880700F017F9264883
:1012E0000068401C2449086024480068401C2349C9
:1012F00008602348007868B91F480068F02809D3BF
:1013000001202049087000201B4908601E49086020
:101310001E4908701D480078E0B91D480078C8B122
:1013200019480068401C1849086008460068B0F574
:10133000167F0FD91748007818B10020154908709A
:1013400005E00120114908700020134908700020B1
:101350000D4908601148007868B111480068401CC8
:101360000F49086008460068782801DC012000E089
:1013700000200C49087010BD30000020340000200F
:101380003C000020410000203800002045000020E3
:101390004200002044000020460000206800002099
:1013A000640000206000002010B50121104800F00A
:1013B000BCF8E0B101210E4800F0A8F80D48006823
:1013C00078B10D48008860B10B4801880B48FFF7E1
:1013D00046FA08480068401E06490860002008498F
:1013E00008600448006810B901200649087010BD63
:1013F00000040040500000204C000020000C02407F
:10140000380000204600002010B50121354800F0CA
:101410008CF8002864D00121324800F077F8324877
:10142000007800285CD031480068002846DC30484D
:101430000078002842D12F48006888B94FF48040D6
:10144000FFF792FC4FF40040FFF78EFC4FF4005082
:10145000FFF794FC2848008840002449086028E0F1
:1014600024480068012810D14003FFF77DFC4FF4A9
:101470000040FFF779FC4FF48040FFF77FFC1F48E6
:10148000008840001949086013E01A4800680228E3
:101490000FD14003FFF768FC4FF40050FFF764FCE6
:1014A0004FF40040FFF76AFC1548008840000F49E0
:1014B00008604FF480501349088011E00B48006821
:1014C00070B94FF48040FFF759FC4FF40050FFF71C
:1014D00055FC4FF40040FFF751FC01200A49087009
:1014E00010BD000000080040450000205000002012
:1014F0004600002054000020580000205A00002020
:101500005C0000204C00002068000020CA430282DA
:10151000704721B1028842F00102028004E0028893
:101520004FF6FE731A400280704730B50246002025
:1015300000230024158A05EA0103958905EA0104C0
:1015400013B10CB1012000E0002030BD1AB1838935
:101550000B43838102E083898B43838170470000C2
:1015600000220288184B98420ED0184B98420BD09C
:10157000B0F1804F08D0164B984205D0154B9842D9
:1015800002D0154B984204D14FF68F731A404B8806
:101590001A43124B984207D0114B984204D04FF691
:1015A000FF431A400B891A4302804B68C3620B88C1
:1015B0000385054B984202D0044B984201D18B7AA7
:1015C000038601238382704700000140000401402C
:1015D0000004004000080040000C004000100040E3
:1015E000001400400C48006820B90C4800880C49E1
:1015F000088010E008480068012804D107480088E6
:101600000849088007E004480068022803D103481D
:101610000088054908807047540000205E000020C3
:10162000580000205A0000205C00002000B50D4842
:10163000007840B10C48007810B100F065F810E077
:1016400000F018F80DE00948007850B1054800781E
:1016500038B9002005490870012002490870044982
:10166000087000BD4200002044000020410000201E
:101670003C0000201A4890ED000AB8EE400ADFED69
:10168000190AB4EEE00AF1EE10FA01D8012000E0E8
:101690000020154908701548007880B10846007888
:1016A00068B913480068401C032190FBF1F201FB6C
:1016B00012000F49086000200C4908700EE00D4828
:1016C000007858B101200C49087000200B490880AF
:1016D0000B4908600B490870064908707047000004
:1016E00034000020000070423D0000203F00002038
:1016F0005400002040000020440000205E00002034
:10170000380000204300002000B530480078002851
:1017100048D02F480068002844DC2E4890ED000A8D
:10172000B8EE400ADFED2C0AB4EEE00AF1EE10FA52
:1017300001D8012000E000202849087028480078DE
:1017400058B10846007840B926480088401C254911
:10175000088000202249087036E023480078A8B1AC
:1017600020480088002806DDFFF73CFF00201D49C7
:1017700008801E49087000201B4908701C49087029
:101780001749087001201B4908701DE018480078AF
:10179000D0B114480088801C1249088000201449E8
:1017A000087011E00E48007810B100200C49087054
:1017B0000D48007810B100200B4908700C480078E3
:1017C00010B100200A49087000BD0000430000204D
:1017D0005000002034000020000070423D00002036
:1017E0003F0000205E000020410000204400002057
:1017F000400000203C00002010B5002A06DA22F04C
:101800000042D21D22F00703102203E0D21C22F076
:1018100003030C2213B19C188C4201D9012010BD86
:10182000024401448360C0E90021C91AD0188842EB
:1018300002D810600246F9E70020106010BD0000D9
:1018400005490978002905D000684FF6FF71DFF8D7
:101850000CC000DF70470000910000201127000835
:1018600004490978002903D00068DFF80CC000DFC4
:101870007047000091000020392600087CB5FF2445
:1018800010215548FEF7E0FF544D00E06D1E002D7D
:10189000FCD10D208DF8000001208DF801000221FF
:1018A000684601F001FB00208DF8000099208DF8BA
:1018B00001000221684601F0F7FA47208DF8000088
:1018C00080208DF801000221684601F0EDFA3220F7
:1018D00000F08EFB044632208DF8000044F08000BA
:1018E0008DF801000221684601F0DEFA322000F096
:1018F0007FFB044632208DF8000024F080008DF834
:1019000001000221684601F0CFFA00208DF80000A6
:101910008DF801000221684601F0C6FA04208DF816
:101920000000AF208DF801000221684601F0BCFAEA
:101930000D208DF8000070208DF80100022168460E
:1019400001F0B2FA05208DF8000081208DF8010029
:101950000221684601F0A8FA06208DF80000072051
:101960008DF801000221684601F09EFA0A208DF8E8
:10197000000000208DF801000221684601F094FA71
:1019800027208DF8000000208DF801000221684614
:1019900001F08AFA9A208DF800000A208DF80100E3
:1019A0008DF802000321684601F07EFA1F208DF8B1
:1019B00000000F208DF801000221684601F074FA42
:1019C00002208DF800009E208DF80100022168465B
:1019D00001F06AFA7CBD0000000C024040420F009A
:1019E0001CB56846FEF732FF1020009001208DF8EC
:1019F000040002208DF8070000208DF80600022068
:101A00008DF8050001210B20FFF7FEF969464248D9
:101A1000FEF7A4FE02208DF8040001208DF80600D8
:101A20004FF41070009000208DF8070002208DF810
:101A3000050069463948FEF791FE04220621374821
:101A4000FEF7D4FE042209213448FEF7CFFE01211F
:101A50004FF40210FFF7E8F90120FFF799FA002090
:101A60008DF806004FF4A450009069462C48FEF70C
:101A700075FE1020009069462A48FEF76FFE062288
:101A800004212848FEF7B2FE062207212448FEF76B
:101A9000ADFE06220A212248FEF7A8FE06220C21EE
:101AA0001F48FEF7A3FE10211B48FEF7CBFE1E4881
:101AB000FFF774FA4BF680301C4988604FF40070D1
:101AC000C880002088804FF4007008800020488083
:101AD00088811548FEF7E8FF01211348FEF7D8FF7B
:101AE0001348FEF7EDFE1348134908600020888074
:101AF000332008814FF480604881000188814BF6D3
:101B0000FF70C88001210A48FEF7CEFE0A49084846
:101B1000FEF73CFF1CBD0000000C02400004024028
:101B20000008024000000240003C00400801002084
:101B300000540040A08601001801002008480068F9
:101B4000C0010BD507480068C00707D0054880389A
:101B50000068002802DA044901200870704700007C
:101B6000FCED00E0800E00E0B40000204FF0604289
:101B7000D36F002BFCD0036BD367D36F002BFCD04B
:101B8000C07840EA0120A2F87C0070474FF0604125
:101B9000CA6F002AFCD081F87C007047002280F8D0
:101BA0004020002107E09FED150A00EB810282ED45
:101BB000000A4A1CD1B20829F5DBB0EE080A80ED14
:101BC000080AB0EE080A80ED090AB0EE080A80EDB6
:101BD0000A0AB0EE080A80ED0B0AB0EE080A80EDA2
:101BE0000C0AB0EE080A80ED0D0AB0EE080A80ED8E
:101BF0000E0AB0EE080A80ED0F0A704700000000E0
:101C00000EB5802200B109B110460AE00178012921
:101C1000FAD101A900F020F8042801D0002000E04A
:101C20001020DDE9011203B000BD70B50D460400BF
:101C300003D012B92078012801D0802070BD204641
:101C400000F0F4FB28B12946204600F030F80020CF
:101C500070BD812070BD000010B504468089002849
:101C600024D0608904EB800000690860606840B19E
:101C70006078022805D10021204600F0D3FD00F055
:101C8000C1FD04F10C0000BFD0E85F1F491E8AB2FD
:101C9000C0E8512F0029F7D16089401C80B26081D3
:101CA000E189884201D100206081042010BD10B577
:101CB00000F0B8FDBDE8104000F0A4BD2DED048B90
:101CC000FEF7D6FFFEF7A4FFFEF7BAFFFEF7E8FF28
:101CD000FFF706F8FFF726F8FEF710FDFEF71EFDEA
:101CE000FEF7FCFCFFF7BCFA01210820FFF78CF897
:101CF0004FF400404B4908600120087100208871B2
:101D0000022048714848FEF729FD01210420FFF711
:101D10007BF8FFF765FEFFF7B1FD01214348FEF7B1
:101D2000B7FE4348FFF73AFF7BE0FFF77FFC4148EF
:101D30000078002875D04048007858B9FEF7D2FBEB
:101D4000FFF726FA00203D4908703D4908603D49EB
:101D5000087001E0FEF7F2FC02213448FFF776F943
:101D600000285ED03548007800285AD036480088D0
:101D700081B22E48FFF773F93448006800F0010083
:101D8000E0B39FED330B53EC102B334890ED000B79
:101D900051EC100B01F056FA2F4A03C29FED2F0BA6
:101DA00053EC102B2C4890ED000B51EC100B01F074
:101DB00067FC0CD29FED2B0B53EC102B264890EDBB
:101DC000000B51EC100B01F091FC234A03C2224896
:101DD00090ED000B51EC100B01F002FA08EE100A26
:101DE000B0EE480A124801F0CDF9204880ED000A13
:101DF000006801F065FD41EC190B00E00CE09FED7F
:101E00001C0B53EC102B01F03DFB41EC180B01F0C7
:101E1000CDFA00B20C4908800C480068401C0B4900
:101E2000086082E700000020000C0240003C0040F7
:101E3000C400002042000020450000206000002077
:101E400064000020680000200C0000200800002032
:101E50009A9999999999B93F1000002000000000C3
:101E60000000F03F000000000000004018000020CB
:101E70000000000000005940EFF3058008B1822007
:101E80007047EFF31480C00703D0DFF80CC000DF09
:101E9000704701F051B80000392F000888B0EFF307
:101EA000058010B1822008B07047EFF3148010F065
:101EB0000301134806D001291BD0022911D00329A0
:101EC00019D113E008A981F309880078C0070BD065
:101ED0005FF0020080F31488BFF34F8FBFF36F8F62
:101EE00009E00078C00706D10320F3E70078C007B7
:101EF00001D0FF20D7E7DFF80CC000DFD3E70000F8
:101F0000D0390008A92F0008EFF305820AB1FFF7C6
:101F100077BEDFF808C000DF70470000153000080A
:101F2000EFF305820AB100207047EFF31482D20765
:101F300002D1044A52781AB1DFF80CC000DF7047B2
:101F400001F086B89000002051300008DFF80CC086
:101F500000DFDFF80CC000DFFEE70000BD30000846
:101F6000D9300008DFF804C000DF704711310008E5
:101F7000094C4FF0FF3529462068FFF7C5FF0246A0
:101F80000846102AF7D1FFF7EDFF0028F3D00246EC
:101F900008469047EFE7000070000020012806D0B7
:101FA000022805D0032804D0042804D102E003E06D
:101FB00002E001E000E000BF00BF00BFFEE700BF9D
:101FC000FEE70000074801684FF0E0204161002172
:101FD0008161072101610448016841F07F4101608E
:101FE00040177047CC39000820ED00E07047000032
:101FF00070B50446002500BF4FF400313048FEF7AD
:10200000A7FC0028F8D101212D48FEF789FC00BF6C
:102010002C492B48FEF79CFC0028F9D00022942183
:102020002748FEF72BFD00BF27492548FEF727FC70
:102030000028F9D021462248FEF728FD00BF22499A
:10204000891E1F48FEF71BFC0028F8D001211C4800
:10205000FEF772FC00BF4FF400311948FEF778FC20
:102060000028F8D100211648FEF7FDFB0121144895
:10207000FEF756FC00BF13491148FEF769FC002823
:10208000F9D0012294210E48FEF7F8FC00BF0F4959
:102090000B48FEF7F4FB0028F9D000BF0B493E3196
:1020A0000748FEF7ECFB0028F8D00548FEF7E2FCF5
:1020B000054601210248FEF73FFC284670BD00009E
:1020C00000540040010000108200070002000300DD
:1020D00050E8001F31B10B6840E80032002AF7D108
:1020E00008467047BFF32F8FFAE710B568B161B1AA
:1020F0000B3121F00302016844680B1A1B1B934249
:1021000005D2084609680029F5D1002010BD21003C
:1021100007D021180368C1E90032016001F108000D
:1021200010BD4260083010BD70B50D46002812D0B9
:102130004FF6FF71084C884204D2226801461046CF
:1021400000F09EFB20684570044800F0D9F8BDE817
:10215000704000F067BC70BD98000020240D002086
:102160000F4810B50D4942680E480B68006893424D
:1021700004D00A60CB88421E1A448A808A8880B2C2
:1021800082420AD100200860054800F0B9F80146F3
:10219000BDE81040024800F097BB10BDAC00002025
:1021A000240D0020A800002070B5194DE868002813
:1021B0002CD0A88A401EA882002621E0A06838B151
:1021C00061684160606810B1A16881606660A66066
:1021D0000F482146183800F077FBA08AA882607863
:1021E000042804D10B49E08A09880844A082012010
:1021F0006070E068E860E06808B10561E66026614B
:10220000A88A002802D1EC68002CD7D170BD00004C
:102210003C0D0020A800002070B504000FD00D4D2B
:10222000A17801262868827891420CD900F068FBD9
:10223000286846702046BDE8704000F0F3BB0648B1
:1022400000F05EF8F7E766702146BDE8704002488E
:1022500000F03ABB98000020240D002010B5044681
:10226000008B084320836278618B062A18D0052AE8
:1022700019D1084217D001EA000262838843208303
:10228000204600F077FB01206070628B0821204619
:1022900000F068FB2146BDE81040034800F014BB85
:1022A00031EA0002EAD010BD240D0020814202D3A1
:1022B00042688A4201D80120704702680A60BFF371
:1022C0005F8F50E8003F0A689A42F6D140E800125A
:1022D000002AF2D10020704768B161B100220839AC
:1022E00002E00246006830B18842FAD12AB10068A3
:1022F0001060002070470120704700214160F8E71E
:102300000146406842684A600B780022022B05D0E3
:10231000012B03D0032B01D04260704743680BB1FF
:102320009960426082607047810700D0002070474A
:1023300070B5044600201546207001226270A1701D
:1023400084F824106060A060E06020612062A082B8
:10235000E0822083608384F82500E08C18B905486A
:10236000FFF7B6FEE06229462046BDE8704000F067
:102370001DB80000A002002008B1082901D20120E8
:1023800070470144091F002201600A604260104644
:102390007047000003480021016003490988C1809B
:1023A00070470000AC000020C039000870B5C28C36
:1023B0001C4D930802D12A88C2F38D03C26A02EB36
:1023C0008302540700D5121F4FF0807442E90214B3
:1023D00000242646B2F1400242F82460641C0E2C10
:1023E000FAD3C4691462826201632968C90014D5F2
:1023F000112B12D94FF0FF31103B11EB53014FF06D
:10240000CC3305D042F8043C42F8083D491EF9D1CE
:10241000C16A121F8A4200D91360C06A0249016072
:1024200070BD0000BC390008A52E5AE2C189808920
:10243000081A7047012202700022427082704260C6
:1024400002814281103982818908C1817047000070
:102450002DE9F041044640680E464FF0000804F1B3
:102460000C05E8B36078012701283ED0022813D07C
:1024700003285CD10846FFF72BFE050057D0204605
:10248000FFF73EFF0446294600F066FA67702046D3
:1024900000F070FA214621E02046FFF731FF0646A2
:1024A000002100F059FA2189F06904EB81010861EB
:1024B000D5E85F0F401C81B2C5E8501F0028F7D156
:1024C0002089401C80B22081E189884201D1A4F892
:1024D00008807770304600F04DFA3146174800E02A
:1024E0000CE0BDE8F04100F0EFB92046FFF708FF2F
:1024F00004463246102100F035FAC7E7A089E18989
:10250000884216D2208904EB80000661D5E85F0F6F
:10251000401C81B2C5E8501F0028F7D12089401C1B
:1025200080B22081E189884201D1A4F80880BDE809
:10253000F081BDE8F0410320FFF730BD240D0020FD
:1025400070B50446808915460026C0B3608904EB47
:102550008000006908606089401C80B26081E18968
:10256000884200D16681606810B1607802280BD083
:1025700014F10C04D4E85F0F401E81B2C4E8501F70
:102580000028F7D1002070BD2046FFF7B9FE0546B0
:10259000002100F0E1F92189E86904EB810108617B
:1025A0002089401C80B22081E189884200D12681A7
:1025B000284600F0DFF92846FFF72EFEE2E7FFE7A6
:1025C0003DB10B48626801682AB1204600F07CF9F1
:1025D00008E0012070BD616001684E6000688460A1
:1025E0000120607008212846FFF79EFDF1E70000FA
:1025F00098000020002814D0411C13D00C4A4FF63C
:10260000FE7190420CD800EB4002C2EBC0120948A8
:10261000036803EBC202521EB2FBF3F0884204D9F6
:10262000084670474FF6FF70704780B27047000051
:1026300000093D00DC3900082DE9F04104464088DE
:1026400020B1314DA1682A68914202D0FF20BDE837
:10265000F081401E0004000C608053D12968086A94
:10266000A04209D1E068086208E0C268A24202D133
:10267000E268C26002E010460028F6D191F824001A
:102680000A6A06E053681BB19B78834200D918465A
:10269000D268002AF6D18870DFF870806168012660
:1026A00011B32046FFF72CFE0746002100F054F935
:1026B000384600F05FF96680A760386AE0603C62E7
:1026C0002968D8F804008A788078824201D3384695
:1026D00016E00E4800F0F8F839460C4800F0F4F81F
:1026E000286846707E700AE0D8F804108A78296855
:1026F000824207D9054800F0E7F8286846700020B4
:10270000FFF78AFD0020A2E798000020240D00209A
:1027100070B51C4D0E4604464188286861B1A26818
:10272000824210D1A1F57F40FF3803D0491C61805F
:10273000002070BDFF2070BDA060016AE1600462EE
:1027400001206080F4E776B191788078814203D2ED
:102750009070A06800F0DEF8606830B1204629680B
:1027600000F0B2F808E0012070BD286860602968B8
:10277000002048602868846009213046FFF7D4FCB7
:10278000F1E700009800002070B51B4801210268A5
:102790005170006800F0B4F8184D6C7818E000BF74
:1027A00005EBC40148680278EAB1012A20D000F0A4
:1027B0000DF9E878641C844200D100240F48801C85
:1027C000D0E84F1F491EC9B2C0E8421F002AF7D106
:1027D000A8780028E4D16C700948FFF791FDBDE8A6
:1027E000704000F01FB9098989B2FFF737FDE0E7B3
:1027F0008968FFF72DFEDCE7980000201009002013
:10280000240D00200548017811B101214170704765
:1028100003494FF08050086070470000A00000207E
:1028200004ED00E0F0B4154DAB1CEE784FEA05075F
:10283000D3E84F2FB24202D1BFF32F8F11E0521CC9
:10284000D4B2C3E8424F002AF2D100BFD7E84F2FDD
:10285000541CB44200D10024E4B2C7E8434F002B1B
:10286000F4D1EB78934205D905EBC202C2E901012C
:10287000F0BC7047F0BC0220FFF790BB10090020AD
:10288000104A10B5D368ABB113469B8A03E08CB1F4
:102890002246A48A2344D4688B42F8D3C460D06013
:1028A0000261C46804B12061591A8182908A401A79
:1028B000908210BD0024C460D060C91A0261918268
:1028C000848210BD3C0D002030B502780023022A1E
:1028D00003D0012A01D0032A00D101238C7800E023
:1028E0001046426812B19578A542F9D24A6041601B
:1028F0001BB102B19160886030BD0020FBE7000091
:1029000003494A68426000228260486070470000C4
:10291000240D002010B5836804462BB96078012887
:102920000ED1084B03E09B6818780028FBD02046A6
:1029300000F034F82146BDE810401846FFF7C4BF48
:1029400010BD0000240D002090F82510806A09B108
:10295000603070472030704710B50C46FFF7F4FF29
:10296000046010BD70B515460C46FFF7EDFFC0E9D9
:10297000004570BD10B5016900290ED0C268CA605B
:10298000C36800223BB18B8A848A23448B82C3684C
:102990001961C26000E08A82026110BD816839B1AC
:1029A00042684A604168002901D0806888607047A9
:1029B000054906E04A68824202D140684860704793
:1029C00011460029F6D17047240D002010B541684A
:1029D00081B1FFF795FC0446FFF7CCFF0120607042
:1029E00001462046FFF7B8FF2146BDE810400348E6
:1029F000FFF76ABF4188491C418010BD240D0020AB
:102A000006480068D0E90A10814203D300680449EF
:102A1000884202D00120FFF7C1BA70479800002019
:102A2000A52E5AE20749022248604270064A1278EF
:102A3000002A05D006C98A4202D0C078FFF7A6B89E
:102A40007047000098000020B400002070B5FFF728
:102A500075F800200446204A204902E042F8204050
:102A6000401C0B889842F9D31D48342201881D4828
:102A7000FEF7C2FE1C48008880B240F000421B48AE
:102A800001681B48FEF7B8FE1A48082201881A4858
:102A90000068FEF7B1FE194DFF20194AE870EC847A
:102AA00000212846FFF744FC1648042101704460C9
:102AB00015480170C460046184821448154905609A
:102AC000022068701248047044700978C170BDE833
:102AD0007040FFF75FBC000094090020B83900087F
:102AE000E439000828010020BC390008E839000852
:102AF000A00200200C3A000878000020F00C002012
:102B0000BF1F0008240D00203C0D0020980000206D
:102B100010090020F03900081B4810B5016841F485
:102B20007F01016000684FF07F4101EA00201649F3
:102B3000C0431439B0FA80F00968C0F10800C1F34D
:102B40000221814200D3481C0F49091F0B686FF016
:102B50008072824063F317020A60FFF733FA0B4971
:102B6000002808600EDB00F1E021FF2281F800243C
:102B700000F01F02012191404009800000F1E02097
:102B8000C0F8001110BD000020ED00E0A4000020FE
:102B90000C4810B50268012151700068FFF7B0FEC3
:102BA000FFF7DEFA08480168491C0160FFF7FCFAEC
:102BB00000F0BAFA0548FFF7A3FBBDE81040FFF7A5
:102BC00031BF000098000020A8000020240D002044
:102BD000002805D0810702D10178002900D000200B
:102BE0007047000030B50B4C0023626805E0956823
:102BF0008D4204D813461268491B002AF7D102609F
:102C0000816012B19568691A91600BB1186030BD8E
:102C1000606030BD900000202DE9F0411E4617464F
:102C200080460D4611F0FF0F00D14D1C1848FFF7EC
:102C30004FFA041E16D0280AE762E084E9B2424641
:102C40002046E661FFF774FB01251248124905E0B2
:102C500000EB850252F8042C32B16D1C0A889542B3
:102C6000F6D90020BDE8F081002DFAD000EB8500F8
:102C700040F8044C0948E570007818B1012120465D
:102C8000FEF774FF2046FFF7C7FA2846EAE7000080
:102C90002801002094090020B8390008B400002061
:102CA0002DE9F05F584DDFF85891DFF85881296819
:102CB0004FF0010A002618B1CA78AB46824243D1D0
:102CC0004E70FDF7C6FA29688862FFF799FE2868FA
:102CD000046A1FE06068C0B12046FFF711FB074699
:102CE0000021FFF739FE3846FFF744FE87F801A0C0
:102CF00039464648FFF7E8FDE168A4F802A0A7605E
:102D0000386AE0603C620C4604E0E0686680A660D9
:102D1000E6600446002CDDD12868C27808EB820109
:102D200041F8046CC16A3A48FFF7C0FA2868C662E5
:102D300099F8001011B10021FEF718FF35482968F5
:102D4000FFF7B4FA2E6056E03349098888420CD860
:102D500008EB800858F8045C3DB12846FFF71EFEDA
:102D60002846FFF707FE2C6A22E0FF20BDE8F09F0F
:102D70006068C0B12046FFF7C3FA07460021FFF79D
:102D8000EBFD3846FFF7F6FD87F801A039461F48EE
:102D9000FFF79AFDE168A4F802A0A760386AE06036
:102DA0003C620C4604E0E0686680A660E66004468B
:102DB000002CDDD148F8046C1548E96AFFF776FA73
:102DC000EE6299F8000018B100212846FEF7CEFE09
:102DD00029461048FFF76AFA0C48DBF800104068F3
:102DE0008B7882789A4209D981F801A00748DBF8EC
:102DF0000010FFF769FD0020FFF70EFA0020B5E78D
:102E0000B40000209409002098000020240D002028
:102E1000A002002028010020B839000870B51A4D22
:102E200080B11A4A128890421FD8194A02EB8000DA
:102E300050F8044CCCB1A17084F824102868A0424A
:102E400005D014E028688170286880F824101148A3
:102E500040688078884215D90E482968FFF734FD0C
:102E600029680120487000200AE0FF2070BD20463C
:102E7000FFF750FD6078012804D10648FFF740FABB
:102E8000FFF7CAF9002070BD98000020B83900088B
:102E900094090020240D002002480068002800D07A
:102EA000C07870479800002070B505460E46002493
:102EB00000BF4FF400311D48FDF74AFD0028F8D14E
:102EC00001211A48FDF72CFD00BF19491748FDF7ED
:102ED0003FFD0028F9D0002294211448FDF7CEFDD3
:102EE00000BF14491148FDF7CAFC0028F9D00DE0D5
:102EF000295D0E48FDF7CAFD601CC4B200BF0D4934
:102F0000891E0A48FDF7BBFC0028F8D0B442EFDB6D
:102F100000BF0749C91C0548FDF71AFD0028F8D075
:102F200001210248FDF708FD70BD0000005400407B
:102F3000010000108200070010B5134C207860B922
:102F40001248400705D1124801681048FFF714FAEB
:102F500008B1852010BDFFF779FD0E49FF200968F3
:102F60008870207858B900210B4800F041F80B49CF
:102F7000086000210A4800F06BF80A490860012047
:102F800020700020607010BD9000002060070020BD
:102F9000EC39000898000020043A00087000002076
:102FA000F43900086C00002070B50F4D687808B146
:102FB000002070BD0D4C206890F824100020FFF711
:102FC0002DFF2068C178FF2903D1816A203181F368
:102FD0000988616811B9606000202060FFF79CFDDE
:102FE00001206870E4E700009000002098000020B5
:102FF00010B5040005D0216819B1606808B10278E5
:103000000AB1002010BD8900103189B2FFF712FA11
:10301000606810BD3EB504000D464FF0800012D030
:10302000217801290FD12846FFF7E4FA024620460D
:1030300001A9FFF785FA012801D0102003E00DB1A6
:10304000402000E00020DDE9011203B030BD0000A7
:1030500070B50E46040029D0206838B3606810F1BE
:10306000030F23DB032821DCE16829B11048FFF7B7
:103070003CF805001AD000E000256068E168001DFA
:1030800040EA012133462A462068FFF7C5FD40B1DA
:10309000084901EB8000084950F8040C826A51632A
:1030A00070BD1DB129460248FFF716F9002070BD1A
:1030B00060070020940900204D1F000810B5FFF79D
:1030C000EBFE002804D0034901EB800050F8040C0B
:1030D00010BD00009409002010B5FFF779FD18B16C
:1030E000C18C19B1C46A02E0802010BD0024C078F0
:1030F000FFF7D6FDFF2806D01CB121460348FFF795
:10310000EBF8002010BD812010BD000060070020FA
:1031100010B5FFF709F920B141690A680169104645
:1031200010BD0020014610BD2DE9F041134E74681A
:10313000002C1CD0A068124F401E4FF00108A06068
:1031400012E0254624687460002229463868FEF79C
:103150006CFD10B10420FEF721FF6879012808D02A
:1031600085F80480002C02D0A0680028E9D0BDE8D2
:10317000F0812846E968FFF735FDF3E7900000206D
:1031800070000020F0EE400A9FED141AB0EE410AE4
:1031900090F8401000EB8103C3ED000A002214E018
:1031A00000F1200303EB8203D3ED001A8B1803F028
:1031B000070300EB830393ED002AB0EE401A01EE03
:1031C000821AB0EE410A531C9AB2082AE8DB4B1C63
:1031D00099B201F0070180F840107047000000002C
:1031E00021F00042A2F16052B2F5801F01F00043CD
:1031F00028BFD2F17F6C0BD95FEA001C43EAC20200
:1032000042EB507018BF704728BF20F00100704794
:10321000B2F5801FBCBF184670474FEA410C1CF541
:10322000001F02D2084600F0C1BB70B500F0D4F90F
:1032300000000089FFF7F6BF4FF00040A0F58000C6
:103240007047000010B591EA030F48BF83F00043B8
:1032500000F15482841A71EB030C05D2121943EB6E
:103260000C03001B61EB0C01DFF824E14FEA115461
:10327000A4EB135C1EEA430F18BF9EEA445F73D0B1
:1032800023EA0E03DCF1200E21EA045143F48013FB
:1032900032D322FA0CFE10EB0E0023FA0CFE41EBA7
:1032A0000E01CCF1200E03FA0EFE10EB0E0051F1D0
:1032B0000001B1F5801FCCF1200E32D201EB045198
:1032C00012FA0EF2BDE8104058BF7047401C38BFDC
:1032D0005FEA420218BF7047002814BF20F00100C7
:1032E00041F100014FEA410313F5001F38BF704759
:1032F000A1F1C04100F0BEB9012A43EB0302ACF1D9
:10330000200CDCF11F0E32BF4FF0000E23FA0CF33D
:1033100010EB030041EB0451B4EB115FD0D0A1EBF3
:10332000045101F5801149085FEA300001EB0451B6
:103330000ED350F1000038BF12FA0EFE08D1BDE8DE
:103340001040C9E7401C38BF5FEA4202CAD1C3E758
:10335000BDE810404FEA410313F5001F38BF704726
:10336000A1F1C04100F086B99EEA445F08D011EA9D
:103370005E0FBDE8104004BF01F00041002070471F
:10338000BDE8104070B500F027F900BF64FBBE3EF9
:103390000000E0FF491058BFC1F140415B1058BF29
:1033A000C3F140438B42EFF3008070474FEA410383
:1033B0004FEA5353A3F58063D3F11E03C8BFD3F183
:1033C000210C0CDD4FF0004242EAC12242EA505289
:1033D00032FA03FC8CEAE17CACEBE1707047102B15
:1033E000C4BF0020704703F5787CBCF1FF3F04D0D8
:1033F0006FF0004282EA2100704770B500F0ECF8EF
:103400004992248000207047F2E7000051EA030C43
:1034100017D41CF5801F58BFBCF5801F00F1068033
:10342000994218BF704708BF9042704707D711F5FF
:10343000801F58BF13F5801F19D4994270478942E5
:1034400070471CF5801F08D5BCF5801FF7D58B424F
:1034500018BF704708BF824270474FF4001C1CEB36
:10346000410F38BF1CEB430F01D28B42704770B540
:1034700000F0B2F8922449004FF000514FF0805311
:10348000FFF788BFDFF848C170B51CEA111E1EBFE8
:103490001CEA13159EEA0C0F95EA0C0F00F06F80E2
:1034A00081EA030423EA4C134EEAD47E21EA4C114C
:1034B00041F4801143F48013AE44A1FB024CA0FB05
:1034C0000365AEF17F7E361955EB0C05A1FB034C6D
:1034D0004CF10003A0FB021C16EB0C06654153F1F6
:1034E0000003094218BF46F0010613F4007F0BD118
:1034F0004FEA03314FEA0530340341EA155140EAFF
:1035000016506FF003020AE04FEAC3214FEAC520CC
:10351000F40241EA555140EA56506FF0020202EBC4
:103520002E4201EB025585EACE710AD05FEA440CC7
:1035300018BF24F0004450F1000041F1000120EADE
:10354000D47040F2FE7C624500D270BDA84214BF28
:103550004FF080444FF04044002E08BF0024BEF1DD
:10356000806FA8BFA1F1C041BDE8704080F28280A9
:103570004FF0000001F1C04101F0004170479EEAA8
:103580000C0F0CEA131518BF95EA0C0F06D04FF07C
:10359000000081EA030E0EF0004170BD00F01CF83F
:1035A0008900013E00F007B800F009B84FEA430C6B
:1035B0005FEA5C5C08D081EA030100F05BB84FEA87
:1035C000410C5FEA5C5CF6D14FF0000001497047A6
:1035D0000000FF070000F87F0EF1020E2EF0030E30
:1035E0005EF8046B364205D4012A43EB030515F55A
:1035F000001F12D8012841EB010C1CF5001F0CD84C
:103600000ED14FEAD17C15F5001F0CEB4C0C0CF1E0
:10361000020C08BF4CEBD37C04E04FF0080C01E037
:103620004FEAD37C0CEB4C0526FA05F606F00706AC
:10363000B6F1040C06D20EEB860CBDE870404CF0DF
:10364000010C6047DFE80CF0090B02024FF000416B
:103650004FF00000A1F5002170BD19461046012869
:1036600051EB010418BFD4F5001484BF002001F011
:10367000004170BD0808A0F500114FEA3101704704
:1036800053EA010C17D41CF5801F58BFBCF5801FEE
:1036900000F106808B4218BF704708BF8242704716
:1036A00007D713F5801F58BF11F5801F19D48B421F
:1036B00070479B4270471CF5801F08D5BCF5801FE2
:1036C000F7D5994218BF704708BF904270474FF432
:1036D000001C1CEB430F38BF1CEB410F01D2994279
:1036E00070470FB40CBC03BCFFF7C1BE10B591EA24
:1036F000030F48BF83F000433FF5ACAD841A71EB74
:10370000030C07D212198CF0004C43EB0C03001B86
:1037100061EB0C01DFF8A4E14FEA1154A4EB135C58
:103720001EEA430F18BF9EEA445F00F0B08023EA10
:103730006E03524221EA0451C3EB6E0338BF5B1E95
:10374000DCF1200E25D322FA0CFE10EB0E0043FA1A
:103750000CFE41EB0E01CCF1200E03FA0EFE10EB35
:103760000E0051F10001CCF1200E29D412FA0EF214
:1037700001EB0451BDE8104058BF7047401C1CBF0E
:10378000B2F1004F704700280CBF491C20F0010027
:10379000704712EB020E43EB030218BF4FF0010E0D
:1037A0004EEA4202ACF1200CDCF11E0E54D943FA71
:1037B0000CFE10EB0E0051F1FF31CCF11E0ED5D5F1
:1037C0000EF1010E12FA0EFE404141EB010101EB38
:1037D000445C5FEA5C5C10D910EBDE7001EB0451D5
:1037E00038BFBEF1004FBDE8104018BF7047002839
:1037F0000CBF491C20F00100704730D24FEAD42C96
:1038000011F5001124F400641BD0B1FA81F20B3AD7
:10381000A41AA41ED2F12003914030FA03F31943F5
:10382000904001EBCC71002C01EB0451BDE810403D
:10383000A8BF704701F1C0414FF0000001F0004106
:103840007047B0FA80F310FA03F100D110BDE41A0A
:10385000173C4805C90AE4E701EB045110BD4910C3
:1038600001EB0451BDE810404FEA300002E04FF098
:10387000000170474A0008BF0042F8D0B2F5001FAF
:1038800028BF704701F000414FF0000070479EEAEA
:10389000445F07D011EA5E0FBDE8104004BF00216D
:1038A00000207047BDE8104070B5FFF795FE00BFDF
:1038B00040DFF63E83F00041104670470000E0FF15
:1038C00043004FEAD30C4FEA3C0C43401FBF400774
:1038D0000CF1605113F0FE4F70471CF0006F03D1E4
:1038E00000200CF0004170470CF0004343EA507098
:1038F00010B540EACC0000F00EF800BF00000092C6
:103900004FEA0001FFF7B6BE4FF000414FF0000054
:10391000A1F5002170470EF1020E2EF0030E5EF8A5
:10392000044B244204D44FEA4102B2F17F4F11D834
:103930004FEA4003B3F17F4F0CD80ED14FEAD07C51
:10394000B2F17F4F0CEB4C0C0CF1020C08BF4CEBAE
:10395000D17C04E04FF0080C01E04FEAD17C0CEB85
:103960004C0324FA03F404F00704B4F1040C06D267
:103970000EEB840CBDE810404CF0010C6047DFE812
:103980000CF0070802024FF00040A0F5800010BDC7
:103990000846420018BFD2F1807288BF00F0004094
:1039A00010BD4FF04070E1EE100A7047FF2141EA70
:1039B000D050C0057047000007000000C800020199
:1039C00005000100001BB7000C000000DF2E000006
:1039D000010000000200010052000400E8030000A2
:1039E0000000000078010000C0040000B0010000E9
:1039F00010000000711F000802000000010000001C
:103A0000C800000004000000B00900200000000011
:103A1000BD1C00080000000001000000C8000000FC
:103A2000403A000800000020B8000000C40100086F
:103A3000F83A0008B800002000130000E001000878
:103A40000000000000000000000000000000000076
:103A50000000000000000000000000000000000066
:103A60000000000000000000000000000000000056
:103A70000000000000000000000000000100000045
:103A80000000000000000000000000000000000036
:103A9000000000000000000002000400060000001A
:103AA0000000000000000000000000000000000016
:103AB0000000000000000000000000000000000006
:103AC00000000000010203040102030406070809C4
:103AD00000000000000000000000000000000000E6
:103AE00000000000000000000000000000000000D6
:083AF0000000000000000000CE
:04000005080003E507
:00000001FF
